{
  "_format": "hh-sol-artifact-1",
  "contractName": "WMDBGovernor",
  "sourceName": "contracts/WMDBGovernor.sol",
  "abi": [
    {
      "inputs": [
        {
          "internalType": "contract IVotes",
          "name": "_token",
          "type": "address"
        },
        {
          "internalType": "contract TimelockController",
          "name": "_timelock",
          "type": "address"
        }
      ],
      "stateMutability": "nonpayable",
      "type": "constructor"
    },
    {
      "inputs": [],
      "name": "Empty",
      "type": "error"
    },
    {
      "anonymous": false,
      "inputs": [
        {
          "indexed": false,
          "internalType": "uint256",
          "name": "proposalId",
          "type": "uint256"
        }
      ],
      "name": "ProposalCanceled",
      "type": "event"
    },
    {
      "anonymous": false,
      "inputs": [
        {
          "indexed": false,
          "internalType": "uint256",
          "name": "proposalId",
          "type": "uint256"
        },
        {
          "indexed": false,
          "internalType": "address",
          "name": "proposer",
          "type": "address"
        },
        {
          "indexed": false,
          "internalType": "address[]",
          "name": "targets",
          "type": "address[]"
        },
        {
          "indexed": false,
          "internalType": "uint256[]",
          "name": "values",
          "type": "uint256[]"
        },
        {
          "indexed": false,
          "internalType": "string[]",
          "name": "signatures",
          "type": "string[]"
        },
        {
          "indexed": false,
          "internalType": "bytes[]",
          "name": "calldatas",
          "type": "bytes[]"
        },
        {
          "indexed": false,
          "internalType": "uint256",
          "name": "startBlock",
          "type": "uint256"
        },
        {
          "indexed": false,
          "internalType": "uint256",
          "name": "endBlock",
          "type": "uint256"
        },
        {
          "indexed": false,
          "internalType": "string",
          "name": "description",
          "type": "string"
        }
      ],
      "name": "ProposalCreated",
      "type": "event"
    },
    {
      "anonymous": false,
      "inputs": [
        {
          "indexed": false,
          "internalType": "uint256",
          "name": "proposalId",
          "type": "uint256"
        }
      ],
      "name": "ProposalExecuted",
      "type": "event"
    },
    {
      "anonymous": false,
      "inputs": [
        {
          "indexed": false,
          "internalType": "uint256",
          "name": "proposalId",
          "type": "uint256"
        },
        {
          "indexed": false,
          "internalType": "uint256",
          "name": "eta",
          "type": "uint256"
        }
      ],
      "name": "ProposalQueued",
      "type": "event"
    },
    {
      "anonymous": false,
      "inputs": [
        {
          "indexed": false,
          "internalType": "uint256",
          "name": "oldProposalThreshold",
          "type": "uint256"
        },
        {
          "indexed": false,
          "internalType": "uint256",
          "name": "newProposalThreshold",
          "type": "uint256"
        }
      ],
      "name": "ProposalThresholdSet",
      "type": "event"
    },
    {
      "anonymous": false,
      "inputs": [
        {
          "indexed": false,
          "internalType": "address",
          "name": "oldTimelock",
          "type": "address"
        },
        {
          "indexed": false,
          "internalType": "address",
          "name": "newTimelock",
          "type": "address"
        }
      ],
      "name": "TimelockChange",
      "type": "event"
    },
    {
      "anonymous": false,
      "inputs": [
        {
          "indexed": true,
          "internalType": "address",
          "name": "voter",
          "type": "address"
        },
        {
          "indexed": false,
          "internalType": "uint256",
          "name": "proposalId",
          "type": "uint256"
        },
        {
          "indexed": false,
          "internalType": "uint8",
          "name": "support",
          "type": "uint8"
        },
        {
          "indexed": false,
          "internalType": "uint256",
          "name": "weight",
          "type": "uint256"
        },
        {
          "indexed": false,
          "internalType": "string",
          "name": "reason",
          "type": "string"
        }
      ],
      "name": "VoteCast",
      "type": "event"
    },
    {
      "anonymous": false,
      "inputs": [
        {
          "indexed": true,
          "internalType": "address",
          "name": "voter",
          "type": "address"
        },
        {
          "indexed": false,
          "internalType": "uint256",
          "name": "proposalId",
          "type": "uint256"
        },
        {
          "indexed": false,
          "internalType": "uint8",
          "name": "support",
          "type": "uint8"
        },
        {
          "indexed": false,
          "internalType": "uint256",
          "name": "weight",
          "type": "uint256"
        },
        {
          "indexed": false,
          "internalType": "string",
          "name": "reason",
          "type": "string"
        },
        {
          "indexed": false,
          "internalType": "bytes",
          "name": "params",
          "type": "bytes"
        }
      ],
      "name": "VoteCastWithParams",
      "type": "event"
    },
    {
      "anonymous": false,
      "inputs": [
        {
          "indexed": false,
          "internalType": "uint256",
          "name": "oldVotingDelay",
          "type": "uint256"
        },
        {
          "indexed": false,
          "internalType": "uint256",
          "name": "newVotingDelay",
          "type": "uint256"
        }
      ],
      "name": "VotingDelaySet",
      "type": "event"
    },
    {
      "anonymous": false,
      "inputs": [
        {
          "indexed": false,
          "internalType": "uint256",
          "name": "oldVotingPeriod",
          "type": "uint256"
        },
        {
          "indexed": false,
          "internalType": "uint256",
          "name": "newVotingPeriod",
          "type": "uint256"
        }
      ],
      "name": "VotingPeriodSet",
      "type": "event"
    },
    {
      "inputs": [],
      "name": "BALLOT_TYPEHASH",
      "outputs": [
        {
          "internalType": "bytes32",
          "name": "",
          "type": "bytes32"
        }
      ],
      "stateMutability": "view",
      "type": "function"
    },
    {
      "inputs": [],
      "name": "COUNTING_MODE",
      "outputs": [
        {
          "internalType": "string",
          "name": "",
          "type": "string"
        }
      ],
      "stateMutability": "pure",
      "type": "function"
    },
    {
      "inputs": [],
      "name": "EXTENDED_BALLOT_TYPEHASH",
      "outputs": [
        {
          "internalType": "bytes32",
          "name": "",
          "type": "bytes32"
        }
      ],
      "stateMutability": "view",
      "type": "function"
    },
    {
      "inputs": [
        {
          "internalType": "uint256",
          "name": "proposalId",
          "type": "uint256"
        },
        {
          "internalType": "uint8",
          "name": "support",
          "type": "uint8"
        }
      ],
      "name": "castVote",
      "outputs": [
        {
          "internalType": "uint256",
          "name": "",
          "type": "uint256"
        }
      ],
      "stateMutability": "nonpayable",
      "type": "function"
    },
    {
      "inputs": [
        {
          "internalType": "uint256",
          "name": "proposalId",
          "type": "uint256"
        },
        {
          "internalType": "uint8",
          "name": "support",
          "type": "uint8"
        },
        {
          "internalType": "uint8",
          "name": "v",
          "type": "uint8"
        },
        {
          "internalType": "bytes32",
          "name": "r",
          "type": "bytes32"
        },
        {
          "internalType": "bytes32",
          "name": "s",
          "type": "bytes32"
        }
      ],
      "name": "castVoteBySig",
      "outputs": [
        {
          "internalType": "uint256",
          "name": "",
          "type": "uint256"
        }
      ],
      "stateMutability": "nonpayable",
      "type": "function"
    },
    {
      "inputs": [
        {
          "internalType": "uint256",
          "name": "proposalId",
          "type": "uint256"
        },
        {
          "internalType": "uint8",
          "name": "support",
          "type": "uint8"
        },
        {
          "internalType": "string",
          "name": "reason",
          "type": "string"
        }
      ],
      "name": "castVoteWithReason",
      "outputs": [
        {
          "internalType": "uint256",
          "name": "",
          "type": "uint256"
        }
      ],
      "stateMutability": "nonpayable",
      "type": "function"
    },
    {
      "inputs": [
        {
          "internalType": "uint256",
          "name": "proposalId",
          "type": "uint256"
        },
        {
          "internalType": "uint8",
          "name": "support",
          "type": "uint8"
        },
        {
          "internalType": "string",
          "name": "reason",
          "type": "string"
        },
        {
          "internalType": "bytes",
          "name": "params",
          "type": "bytes"
        }
      ],
      "name": "castVoteWithReasonAndParams",
      "outputs": [
        {
          "internalType": "uint256",
          "name": "",
          "type": "uint256"
        }
      ],
      "stateMutability": "nonpayable",
      "type": "function"
    },
    {
      "inputs": [
        {
          "internalType": "uint256",
          "name": "proposalId",
          "type": "uint256"
        },
        {
          "internalType": "uint8",
          "name": "support",
          "type": "uint8"
        },
        {
          "internalType": "string",
          "name": "reason",
          "type": "string"
        },
        {
          "internalType": "bytes",
          "name": "params",
          "type": "bytes"
        },
        {
          "internalType": "uint8",
          "name": "v",
          "type": "uint8"
        },
        {
          "internalType": "bytes32",
          "name": "r",
          "type": "bytes32"
        },
        {
          "internalType": "bytes32",
          "name": "s",
          "type": "bytes32"
        }
      ],
      "name": "castVoteWithReasonAndParamsBySig",
      "outputs": [
        {
          "internalType": "uint256",
          "name": "",
          "type": "uint256"
        }
      ],
      "stateMutability": "nonpayable",
      "type": "function"
    },
    {
      "inputs": [
        {
          "internalType": "address[]",
          "name": "targets",
          "type": "address[]"
        },
        {
          "internalType": "uint256[]",
          "name": "values",
          "type": "uint256[]"
        },
        {
          "internalType": "bytes[]",
          "name": "calldatas",
          "type": "bytes[]"
        },
        {
          "internalType": "bytes32",
          "name": "descriptionHash",
          "type": "bytes32"
        }
      ],
      "name": "execute",
      "outputs": [
        {
          "internalType": "uint256",
          "name": "",
          "type": "uint256"
        }
      ],
      "stateMutability": "payable",
      "type": "function"
    },
    {
      "inputs": [
        {
          "internalType": "address",
          "name": "account",
          "type": "address"
        },
        {
          "internalType": "uint256",
          "name": "blockNumber",
          "type": "uint256"
        }
      ],
      "name": "getVotes",
      "outputs": [
        {
          "internalType": "uint256",
          "name": "",
          "type": "uint256"
        }
      ],
      "stateMutability": "view",
      "type": "function"
    },
    {
      "inputs": [
        {
          "internalType": "address",
          "name": "account",
          "type": "address"
        },
        {
          "internalType": "uint256",
          "name": "blockNumber",
          "type": "uint256"
        },
        {
          "internalType": "bytes",
          "name": "params",
          "type": "bytes"
        }
      ],
      "name": "getVotesWithParams",
      "outputs": [
        {
          "internalType": "uint256",
          "name": "",
          "type": "uint256"
        }
      ],
      "stateMutability": "view",
      "type": "function"
    },
    {
      "inputs": [
        {
          "internalType": "uint256",
          "name": "proposalId",
          "type": "uint256"
        },
        {
          "internalType": "address",
          "name": "account",
          "type": "address"
        }
      ],
      "name": "hasVoted",
      "outputs": [
        {
          "internalType": "bool",
          "name": "",
          "type": "bool"
        }
      ],
      "stateMutability": "view",
      "type": "function"
    },
    {
      "inputs": [
        {
          "internalType": "address[]",
          "name": "targets",
          "type": "address[]"
        },
        {
          "internalType": "uint256[]",
          "name": "values",
          "type": "uint256[]"
        },
        {
          "internalType": "bytes[]",
          "name": "calldatas",
          "type": "bytes[]"
        },
        {
          "internalType": "bytes32",
          "name": "descriptionHash",
          "type": "bytes32"
        }
      ],
      "name": "hashProposal",
      "outputs": [
        {
          "internalType": "uint256",
          "name": "",
          "type": "uint256"
        }
      ],
      "stateMutability": "pure",
      "type": "function"
    },
    {
      "inputs": [],
      "name": "name",
      "outputs": [
        {
          "internalType": "string",
          "name": "",
          "type": "string"
        }
      ],
      "stateMutability": "view",
      "type": "function"
    },
    {
      "inputs": [
        {
          "internalType": "address",
          "name": "",
          "type": "address"
        },
        {
          "internalType": "address",
          "name": "",
          "type": "address"
        },
        {
          "internalType": "uint256[]",
          "name": "",
          "type": "uint256[]"
        },
        {
          "internalType": "uint256[]",
          "name": "",
          "type": "uint256[]"
        },
        {
          "internalType": "bytes",
          "name": "",
          "type": "bytes"
        }
      ],
      "name": "onERC1155BatchReceived",
      "outputs": [
        {
          "internalType": "bytes4",
          "name": "",
          "type": "bytes4"
        }
      ],
      "stateMutability": "nonpayable",
      "type": "function"
    },
    {
      "inputs": [
        {
          "internalType": "address",
          "name": "",
          "type": "address"
        },
        {
          "internalType": "address",
          "name": "",
          "type": "address"
        },
        {
          "internalType": "uint256",
          "name": "",
          "type": "uint256"
        },
        {
          "internalType": "uint256",
          "name": "",
          "type": "uint256"
        },
        {
          "internalType": "bytes",
          "name": "",
          "type": "bytes"
        }
      ],
      "name": "onERC1155Received",
      "outputs": [
        {
          "internalType": "bytes4",
          "name": "",
          "type": "bytes4"
        }
      ],
      "stateMutability": "nonpayable",
      "type": "function"
    },
    {
      "inputs": [
        {
          "internalType": "address",
          "name": "",
          "type": "address"
        },
        {
          "internalType": "address",
          "name": "",
          "type": "address"
        },
        {
          "internalType": "uint256",
          "name": "",
          "type": "uint256"
        },
        {
          "internalType": "bytes",
          "name": "",
          "type": "bytes"
        }
      ],
      "name": "onERC721Received",
      "outputs": [
        {
          "internalType": "bytes4",
          "name": "",
          "type": "bytes4"
        }
      ],
      "stateMutability": "nonpayable",
      "type": "function"
    },
    {
      "inputs": [
        {
          "internalType": "uint256",
          "name": "proposalId",
          "type": "uint256"
        }
      ],
      "name": "proposalDeadline",
      "outputs": [
        {
          "internalType": "uint256",
          "name": "",
          "type": "uint256"
        }
      ],
      "stateMutability": "view",
      "type": "function"
    },
    {
      "inputs": [
        {
          "internalType": "uint256",
          "name": "proposalId",
          "type": "uint256"
        }
      ],
      "name": "proposalEta",
      "outputs": [
        {
          "internalType": "uint256",
          "name": "",
          "type": "uint256"
        }
      ],
      "stateMutability": "view",
      "type": "function"
    },
    {
      "inputs": [
        {
          "internalType": "uint256",
          "name": "proposalId",
          "type": "uint256"
        }
      ],
      "name": "proposalSnapshot",
      "outputs": [
        {
          "internalType": "uint256",
          "name": "",
          "type": "uint256"
        }
      ],
      "stateMutability": "view",
      "type": "function"
    },
    {
      "inputs": [],
      "name": "proposalThreshold",
      "outputs": [
        {
          "internalType": "uint256",
          "name": "",
          "type": "uint256"
        }
      ],
      "stateMutability": "view",
      "type": "function"
    },
    {
      "inputs": [
        {
          "internalType": "uint256",
          "name": "proposalId",
          "type": "uint256"
        }
      ],
      "name": "proposalVotes",
      "outputs": [
        {
          "internalType": "uint256",
          "name": "againstVotes",
          "type": "uint256"
        },
        {
          "internalType": "uint256",
          "name": "forVotes",
          "type": "uint256"
        },
        {
          "internalType": "uint256",
          "name": "abstainVotes",
          "type": "uint256"
        }
      ],
      "stateMutability": "view",
      "type": "function"
    },
    {
      "inputs": [
        {
          "internalType": "address[]",
          "name": "targets",
          "type": "address[]"
        },
        {
          "internalType": "uint256[]",
          "name": "values",
          "type": "uint256[]"
        },
        {
          "internalType": "bytes[]",
          "name": "calldatas",
          "type": "bytes[]"
        },
        {
          "internalType": "string",
          "name": "description",
          "type": "string"
        }
      ],
      "name": "propose",
      "outputs": [
        {
          "internalType": "uint256",
          "name": "",
          "type": "uint256"
        }
      ],
      "stateMutability": "nonpayable",
      "type": "function"
    },
    {
      "inputs": [
        {
          "internalType": "address[]",
          "name": "targets",
          "type": "address[]"
        },
        {
          "internalType": "uint256[]",
          "name": "values",
          "type": "uint256[]"
        },
        {
          "internalType": "bytes[]",
          "name": "calldatas",
          "type": "bytes[]"
        },
        {
          "internalType": "bytes32",
          "name": "descriptionHash",
          "type": "bytes32"
        }
      ],
      "name": "queue",
      "outputs": [
        {
          "internalType": "uint256",
          "name": "",
          "type": "uint256"
        }
      ],
      "stateMutability": "nonpayable",
      "type": "function"
    },
    {
      "inputs": [
        {
          "internalType": "uint256",
          "name": "blockNumber",
          "type": "uint256"
        }
      ],
      "name": "quorum",
      "outputs": [
        {
          "internalType": "uint256",
          "name": "",
          "type": "uint256"
        }
      ],
      "stateMutability": "pure",
      "type": "function"
    },
    {
      "inputs": [
        {
          "internalType": "address",
          "name": "target",
          "type": "address"
        },
        {
          "internalType": "uint256",
          "name": "value",
          "type": "uint256"
        },
        {
          "internalType": "bytes",
          "name": "data",
          "type": "bytes"
        }
      ],
      "name": "relay",
      "outputs": [],
      "stateMutability": "nonpayable",
      "type": "function"
    },
    {
      "inputs": [
        {
          "internalType": "uint256",
          "name": "newProposalThreshold",
          "type": "uint256"
        }
      ],
      "name": "setProposalThreshold",
      "outputs": [],
      "stateMutability": "nonpayable",
      "type": "function"
    },
    {
      "inputs": [
        {
          "internalType": "uint256",
          "name": "newVotingDelay",
          "type": "uint256"
        }
      ],
      "name": "setVotingDelay",
      "outputs": [],
      "stateMutability": "nonpayable",
      "type": "function"
    },
    {
      "inputs": [
        {
          "internalType": "uint256",
          "name": "newVotingPeriod",
          "type": "uint256"
        }
      ],
      "name": "setVotingPeriod",
      "outputs": [],
      "stateMutability": "nonpayable",
      "type": "function"
    },
    {
      "inputs": [
        {
          "internalType": "uint256",
          "name": "proposalId",
          "type": "uint256"
        }
      ],
      "name": "state",
      "outputs": [
        {
          "internalType": "enum IGovernor.ProposalState",
          "name": "",
          "type": "uint8"
        }
      ],
      "stateMutability": "view",
      "type": "function"
    },
    {
      "inputs": [
        {
          "internalType": "bytes4",
          "name": "interfaceId",
          "type": "bytes4"
        }
      ],
      "name": "supportsInterface",
      "outputs": [
        {
          "internalType": "bool",
          "name": "",
          "type": "bool"
        }
      ],
      "stateMutability": "view",
      "type": "function"
    },
    {
      "inputs": [],
      "name": "timelock",
      "outputs": [
        {
          "internalType": "address",
          "name": "",
          "type": "address"
        }
      ],
      "stateMutability": "view",
      "type": "function"
    },
    {
      "inputs": [],
      "name": "token",
      "outputs": [
        {
          "internalType": "contract IVotes",
          "name": "",
          "type": "address"
        }
      ],
      "stateMutability": "view",
      "type": "function"
    },
    {
      "inputs": [
        {
          "internalType": "contract TimelockController",
          "name": "newTimelock",
          "type": "address"
        }
      ],
      "name": "updateTimelock",
      "outputs": [],
      "stateMutability": "nonpayable",
      "type": "function"
    },
    {
      "inputs": [],
      "name": "version",
      "outputs": [
        {
          "internalType": "string",
          "name": "",
          "type": "string"
        }
      ],
      "stateMutability": "view",
      "type": "function"
    },
    {
      "inputs": [],
      "name": "votingDelay",
      "outputs": [
        {
          "internalType": "uint256",
          "name": "",
          "type": "uint256"
        }
      ],
      "stateMutability": "view",
      "type": "function"
    },
    {
      "inputs": [],
      "name": "votingPeriod",
      "outputs": [
        {
          "internalType": "uint256",
          "name": "",
          "type": "uint256"
        }
      ],
      "stateMutability": "view",
      "type": "function"
    },
    {
      "stateMutability": "payable",
      "type": "receive"
    }
  ],
  "bytecode": "0x6101606040523480156200001257600080fd5b50604051620039ae380380620039ae8339810160408190526200003591620003cd565b80826001618ca060006040518060400160405280600c81526020016b2ba6a22123b7bb32b93737b960a11b81525080620000746200016260201b60201c565b815160208084019190912082518383012060e08290526101008190524660a0818152604080517f8b73c3c69bb8fe3d512ecc4cf759cc79239f7b179b0ffacaa9a75d522b39400f81880181905281830187905260608201869052608082019490945230818401528151808203909301835260c00190528051940193909320919290916080523060c05261012052505082516200011a92506000915060208401906200030e565b50620001289050836200017d565b6200013382620001be565b6200013e8162000264565b5050506001600160a01b0316610140526200015981620002a5565b50505062000449565b6040805180820190915260018152603160f81b602082015290565b60045460408051918252602082018390527fc565b045403dc03c2eea82b81a0465edad9e2e7fc4d97e11421c209da93d7a93910160405180910390a1600455565b60008111620002235760405162461bcd60e51b815260206004820152602760248201527f476f7665726e6f7253657474696e67733a20766f74696e6720706572696f6420604482015266746f6f206c6f7760c81b606482015260840160405180910390fd5b60055460408051918252602082018390527f7e3f7f0708a84de9203036abaa450dccc85ad5ff52f78c170f3edb55cf5e8828910160405180910390a1600555565b60065460408051918252602082018390527fccb45da8d5717e6c4544694297c4ba5cf151d455c9bb0ed4fc7a38411bc05461910160405180910390a1600655565b600854604080516001600160a01b03928316815291831660208301527f08f74ea46ef7894f65eabfb5e6e695de773a000b47c529ab559178069b226401910160405180910390a1600880546001600160a01b0319166001600160a01b0392909216919091179055565b8280546200031c906200040c565b90600052602060002090601f0160209004810192826200034057600085556200038b565b82601f106200035b57805160ff19168380011785556200038b565b828001600101855582156200038b579182015b828111156200038b5782518255916020019190600101906200036e565b50620003999291506200039d565b5090565b5b808211156200039957600081556001016200039e565b6001600160a01b0381168114620003ca57600080fd5b50565b60008060408385031215620003e157600080fd5b8251620003ee81620003b4565b60208401519092506200040181620003b4565b809150509250929050565b600181811c908216806200042157607f821691505b602082108114156200044357634e487b7160e01b600052602260045260246000fd5b50919050565b60805160a05160c05160e051610100516101205161014051613503620004ab600039600081816107e90152611ae301526000611dc501526000611e1401526000611def01526000611d4801526000611d7201526000611d9c01526135036000f3fe60806040526004361061021e5760003560e01c80637b3c71d311610123578063c59057e4116100ab578063eb9019d41161006f578063eb9019d414610743578063ece40cc114610763578063f23a6e6114610783578063f8ce560a146107af578063fc0c546a146107d757600080fd5b8063c59057e414610657578063d33219b414610677578063dd4e2ba5146106a9578063deaaa7cc146106ef578063ea0217cf1461072357600080fd5b8063ab58fb8e116100f2578063ab58fb8e146105b6578063b58131b0146105d6578063bc197c81146105eb578063c01f9e3714610617578063c28bc2fa1461063757600080fd5b80637b3c71d3146105365780637d5e81e2146105565780639a802a6d14610576578063a890c9101461059657600080fd5b80633932abb1116101a6578063544ffc9c11610175578063544ffc9c1461045757806354fd4d50146104ac57806356781388146104d65780635f398a14146104f657806370b0f6601461051657600080fd5b80633932abb1146103ab5780633bccf4fd146103c05780633e4f49e6146103e0578063438596321461040d57600080fd5b8063150b7a02116101ed578063150b7a02146102e0578063160cbed7146103245780632656227d146103445780632d63f693146103575780632fe3e2611461037757600080fd5b806301ffc9a71461024657806302a251a31461027b578063034201811461029e57806306fdde03146102be57600080fd5b36610241573061022c61080b565b6001600160a01b03161461023f57600080fd5b005b600080fd5b34801561025257600080fd5b50610266610261366004612647565b610824565b60405190151581526020015b60405180910390f35b34801561028757600080fd5b50610290610835565b604051908152602001610272565b3480156102aa57600080fd5b506102906102b936600461278c565b610840565b3480156102ca57600080fd5b506102d3610938565b604051610272919061288e565b3480156102ec57600080fd5b5061030b6102fb3660046128b6565b630a85bd0160e11b949350505050565b6040516001600160e01b03199091168152602001610272565b34801561033057600080fd5b5061029061033f366004612a92565b6109ca565b610290610352366004612a92565b610bf1565b34801561036357600080fd5b50610290610372366004612b21565b610cde565b34801561038357600080fd5b506102907fb3b3f3b703cd84ce352197dcff232b1b5d3cfb2025ce47cf04742d0651f1af8881565b3480156103b757600080fd5b50610290610d15565b3480156103cc57600080fd5b506102906103db366004612b3a565b610d20565b3480156103ec57600080fd5b506104006103fb366004612b21565b610d96565b6040516102729190612b9e565b34801561041957600080fd5b50610266610428366004612bc6565b60008281526007602090815260408083206001600160a01b038516845260030190915290205460ff1692915050565b34801561046357600080fd5b50610491610472366004612b21565b6000908152600760205260409020805460018201546002909201549092565b60408051938452602084019290925290820152606001610272565b3480156104b857600080fd5b506040805180820190915260018152603160f81b60208201526102d3565b3480156104e257600080fd5b506102906104f1366004612bf6565b610da1565b34801561050257600080fd5b50610290610511366004612c22565b610dca565b34801561052257600080fd5b5061023f610531366004612b21565b610e14565b34801561054257600080fd5b50610290610551366004612ca5565b610ea3565b34801561056257600080fd5b50610290610571366004612cfe565b610ef5565b34801561058257600080fd5b50610290610591366004612db2565b610f0c565b3480156105a257600080fd5b5061023f6105b1366004612e0a565b610f23565b3480156105c257600080fd5b506102906105d1366004612b21565b610faf565b3480156105e257600080fd5b50610290611058565b3480156105f757600080fd5b5061030b610606366004612e27565b63bc197c8160e01b95945050505050565b34801561062357600080fd5b50610290610632366004612b21565b611063565b34801561064357600080fd5b5061023f610652366004612eba565b611092565b34801561066357600080fd5b50610290610672366004612a92565b61115e565b34801561068357600080fd5b506008546001600160a01b03165b6040516001600160a01b039091168152602001610272565b3480156106b557600080fd5b506040805180820190915260208082527f737570706f72743d627261766f2671756f72756d3d666f722c6162737461696e908201526102d3565b3480156106fb57600080fd5b506102907f150214d74d59b7d1e90c73fc22ef3d991dd0a76b046543d4d80ab92d2a50328f81565b34801561072f57600080fd5b5061023f61073e366004612b21565b611198565b34801561074f57600080fd5b5061029061075e366004612efd565b611224565b34801561076f57600080fd5b5061023f61077e366004612b21565b611245565b34801561078f57600080fd5b5061030b61079e366004612f29565b63f23a6e6160e01b95945050505050565b3480156107bb57600080fd5b506102906107ca366004612b21565b50674563918244f4000090565b3480156107e357600080fd5b506106917f000000000000000000000000000000000000000000000000000000000000000081565b600061081f6008546001600160a01b031690565b905090565b600061082f826112d1565b92915050565b600061081f60055490565b6000806108e46108dc7fb3b3f3b703cd84ce352197dcff232b1b5d3cfb2025ce47cf04742d0651f1af888c8c8c8c60405161087c929190612f91565b60405180910390208b805190602001206040516020016108c1959493929190948552602085019390935260ff9190911660408401526060830152608082015260a00190565b604051602081830303815290604052805190602001206112f6565b868686611344565b905061092a8a828b8b8b8080601f0160208091040260200160405190810160405280939291908181526020018383808284376000920191909152508d9250611362915050565b9a9950505050505050505050565b60606000805461094790612fa1565b80601f016020809104026020016040519081016040528092919081815260200182805461097390612fa1565b80156109c05780601f10610995576101008083540402835291602001916109c0565b820191906000526020600020905b8154815290600101906020018083116109a357829003601f168201915b5050505050905090565b6000806109d98686868661115e565b905060046109e682610d96565b60078111156109f7576109f7612b88565b14610a1d5760405162461bcd60e51b8152600401610a1490612fdc565b60405180910390fd5b6008546040805163793d064960e11b815290516000926001600160a01b03169163f27a0c92916004808301926020929190829003018186803b158015610a6257600080fd5b505afa158015610a76573d6000803e3d6000fd5b505050506040513d601f19601f82011682018060405250810190610a9a919061301d565b60085460405163b1c5f42760e01b81529192506001600160a01b03169063b1c5f42790610ad4908a908a908a906000908b906004016130ff565b60206040518083038186803b158015610aec57600080fd5b505afa158015610b00573d6000803e3d6000fd5b505050506040513d601f19601f82011682018060405250810190610b24919061301d565b6000838152600960205260408082209290925560085491516308f2a0bb60e41b81526001600160a01b0390921691638f2a0bb091610b6f918b918b918b91908b90899060040161314d565b600060405180830381600087803b158015610b8957600080fd5b505af1158015610b9d573d6000803e3d6000fd5b505050507f9a2e42fd6722813d69113e7d0079d3d940171428df7373df9c7f7617cfda2892828242610bcf91906131bb565b6040805192835260208301919091520160405180910390a15095945050505050565b600080610c008686868661115e565b90506000610c0d82610d96565b90506004816007811115610c2357610c23612b88565b1480610c4057506005816007811115610c3e57610c3e612b88565b145b610c5c5760405162461bcd60e51b8152600401610a1490612fdc565b600082815260016020818152604092839020600201805460ff191690921790915590518381527f712ae1383f79ac853f8d882153778e0260ef8f03b504e2866e0593e04d2b291f910160405180910390a1610cba82888888886114c4565b610cc78288888888611566565b610cd48288888888611573565b5095945050505050565b60008181526001602090815260408083208151928301909152546001600160401b0316908190525b6001600160401b031692915050565b600061081f60045490565b604080517f150214d74d59b7d1e90c73fc22ef3d991dd0a76b046543d4d80ab92d2a50328f602082015290810186905260ff851660608201526000908190610d6e906108dc906080016108c1565b9050610d8b878288604051806020016040528060008152506115ac565b979650505050505050565b600061082f826115cf565b600080339050610dc2848285604051806020016040528060008152506115ac565b949350505050565b600080339050610d8b87828888888080601f0160208091040260200160405190810160405280939291908181526020018383808284376000920191909152508a9250611362915050565b610e1c61080b565b6001600160a01b0316336001600160a01b031614610e4c5760405162461bcd60e51b8152600401610a14906131d3565b30610e5561080b565b6001600160a01b031614610e975760008036604051610e75929190612f91565b604051809103902090505b80610e8b6002611737565b14610e9557610e80565b505b610ea0816117b6565b50565b600080339050610eeb86828787878080601f0160208091040260200160405190810160405280939291908181526020018383808284376000920191909152506115ac92505050565b9695505050505050565b6000610f03858585856117f7565b95945050505050565b6000610f19848484611aba565b90505b9392505050565b610f2b61080b565b6001600160a01b0316336001600160a01b031614610f5b5760405162461bcd60e51b8152600401610a14906131d3565b30610f6461080b565b6001600160a01b031614610fa65760008036604051610f84929190612f91565b604051809103902090505b80610f9a6002611737565b14610fa457610f8f565b505b610ea081611b5f565b60085460008281526009602052604080822054905163d45c443560e01b81526004810191909152909182916001600160a01b039091169063d45c44359060240160206040518083038186803b15801561100757600080fd5b505afa15801561101b573d6000803e3d6000fd5b505050506040513d601f19601f8201168201806040525081019061103f919061301d565b90508060011461104f5780610f1c565b60009392505050565b600061081f60065490565b60008181526001602081815260408084208151928301909152909101546001600160401b031690819052610d06565b61109a61080b565b6001600160a01b0316336001600160a01b0316146110ca5760405162461bcd60e51b8152600401610a14906131d3565b306110d361080b565b6001600160a01b03161461111557600080366040516110f3929190612f91565b604051809103902090505b806111096002611737565b14611113576110fe565b505b6111578483838080601f016020809104026020016040519081016040528093929190818152602001838380828437600092019190915250889250611bc8915050565b5050505050565b600084848484604051602001611177949392919061320a565b60408051601f19818403018152919052805160209091012095945050505050565b6111a061080b565b6001600160a01b0316336001600160a01b0316146111d05760405162461bcd60e51b8152600401610a14906131d3565b306111d961080b565b6001600160a01b03161461121b57600080366040516111f9929190612f91565b604051809103902090505b8061120f6002611737565b1461121957611204565b505b610ea081611bee565b6000610f1c838361124060408051602081019091526000815290565b611aba565b61124d61080b565b6001600160a01b0316336001600160a01b03161461127d5760405162461bcd60e51b8152600401610a14906131d3565b3061128661080b565b6001600160a01b0316146112c857600080366040516112a6929190612f91565b604051809103902090505b806112bc6002611737565b146112c6576112b1565b505b610ea081611c8f565b60006001600160e01b03198216636e665ced60e01b148061082f575061082f82611cd0565b600061082f611303611d3b565b8360405161190160f01b6020820152602281018390526042810182905260009060620160405160208183030381529060405280519060200120905092915050565b600080600061135587878787611e62565b91509150610cd481611f4f565b600085815260016020819052604082209061137c88610d96565b600781111561138d5761138d612b88565b146113e65760405162461bcd60e51b815260206004820152602360248201527f476f7665726e6f723a20766f7465206e6f742063757272656e746c792061637460448201526269766560e81b6064820152608401610a14565b604080516020810190915281546001600160401b03169081905260009061140f90889086611aba565b905061141e888888848861210a565b835161147057866001600160a01b03167fb8e138887d0aa13bab447e82de9d5c1777041ecd21ca36ba824ff1e6c07ddda4898884896040516114639493929190613255565b60405180910390a2610d8b565b866001600160a01b03167fe2babfbac5889a709b63bb7f598b324e08bc5a4fb9ec647fb3cbc9ec07eb871289888489896040516114b195949392919061327d565b60405180910390a2979650505050505050565b306114cd61080b565b6001600160a01b0316146111575760005b845181101561155e57306001600160a01b0316858281518110611503576115036132c3565b60200260200101516001600160a01b0316141561154e5761154e83828151811061152f5761152f6132c3565b602002602001015180519060200120600261228990919063ffffffff16565b611557816132d9565b90506114de565b505050505050565b61115785858585856122c5565b3061157c61080b565b6001600160a01b03161461115757600254600f81810b600160801b909204900b1315611157576000600255611157565b6000610f03858585856115ca60408051602081019091526000815290565b611362565b6000806115db83612339565b905060048160078111156115f1576115f1612b88565b146115fc5792915050565b60008381526009602052604090205480611617575092915050565b600854604051632ab0f52960e01b8152600481018390526001600160a01b0390911690632ab0f5299060240160206040518083038186803b15801561165b57600080fd5b505afa15801561166f573d6000803e3d6000fd5b505050506040513d601f19601f8201168201806040525081019061169391906132f4565b156116a2575060079392505050565b600854604051632c258a9f60e11b8152600481018390526001600160a01b039091169063584b153e9060240160206040518083038186803b1580156116e657600080fd5b505afa1580156116fa573d6000803e3d6000fd5b505050506040513d601f19601f8201168201806040525081019061171e91906132f4565b1561172d575060059392505050565b5060029392505050565b60006117528254600f81810b600160801b909204900b131590565b1561177057604051631ed9509560e11b815260040160405180910390fd5b508054600f0b6000818152600180840160205260408220805492905583546fffffffffffffffffffffffffffffffff191692016001600160801b03169190911790915590565b60045460408051918252602082018390527fc565b045403dc03c2eea82b81a0465edad9e2e7fc4d97e11421c209da93d7a93910160405180910390a1600455565b6000611801611058565b6118103361075e600143613316565b10156118785760405162461bcd60e51b815260206004820152603160248201527f476f7665726e6f723a2070726f706f73657220766f7465732062656c6f7720706044820152701c9bdc1bdcd85b081d1a1c995cda1bdb19607a1b6064820152608401610a14565b600061188d868686868051906020012061115e565b905084518651146118b05760405162461bcd60e51b8152600401610a149061332d565b83518651146118d15760405162461bcd60e51b8152600401610a149061332d565b60008651116119225760405162461bcd60e51b815260206004820152601860248201527f476f7665726e6f723a20656d7074792070726f706f73616c00000000000000006044820152606401610a14565b600081815260016020908152604091829020825191820190925281546001600160401b031690819052156119a25760405162461bcd60e51b815260206004820152602160248201527f476f7665726e6f723a2070726f706f73616c20616c72656164792065786973746044820152607360f81b6064820152608401610a14565b60006119b46119af610d15565b612445565b6119bd43612445565b6119c7919061336e565b905060006119d66119af610835565b6119e0908361336e565b835467ffffffffffffffff19166001600160401b038416178455905060018301805467ffffffffffffffff19166001600160401b0383161790557f7d84a6263ae0d98d3329bd7b46bb4e8d6f98cd35a7adb45c274c8b7fd5ebd5e084338b8b8d516001600160401b03811115611a5857611a586126cf565b604051908082528060200260200182016040528015611a8b57816020015b6060815260200190600190039081611a765790505b508c88888e604051611aa599989796959493929190613399565b60405180910390a15091979650505050505050565b604051630748d63560e31b81526001600160a01b038481166004830152602482018490526000917f000000000000000000000000000000000000000000000000000000000000000090911690633a46b1a89060440160206040518083038186803b158015611b2757600080fd5b505afa158015611b3b573d6000803e3d6000fd5b505050506040513d601f19601f82011682018060405250810190610f19919061301d565b600854604080516001600160a01b03928316815291831660208301527f08f74ea46ef7894f65eabfb5e6e695de773a000b47c529ab559178069b226401910160405180910390a1600880546001600160a01b0319166001600160a01b0392909216919091179055565b6060610f198484846040518060600160405280602981526020016134a5602991396124b1565b60008111611c4e5760405162461bcd60e51b815260206004820152602760248201527f476f7665726e6f7253657474696e67733a20766f74696e6720706572696f6420604482015266746f6f206c6f7760c81b6064820152608401610a14565b60055460408051918252602082018390527f7e3f7f0708a84de9203036abaa450dccc85ad5ff52f78c170f3edb55cf5e8828910160405180910390a1600555565b60065460408051918252602082018390527fccb45da8d5717e6c4544694297c4ba5cf151d455c9bb0ed4fc7a38411bc05461910160405180910390a1600655565b60006001600160e01b0319821663bf26d89760e01b1480611d0157506001600160e01b031982166379dd796f60e01b145b80611d1c57506001600160e01b03198216630271189760e51b145b8061082f57506301ffc9a760e01b6001600160e01b031983161461082f565b6000306001600160a01b037f000000000000000000000000000000000000000000000000000000000000000016148015611d9457507f000000000000000000000000000000000000000000000000000000000000000046145b15611dbe57507f000000000000000000000000000000000000000000000000000000000000000090565b50604080517f00000000000000000000000000000000000000000000000000000000000000006020808301919091527f0000000000000000000000000000000000000000000000000000000000000000828401527f000000000000000000000000000000000000000000000000000000000000000060608301524660808301523060a0808401919091528351808403909101815260c0909201909252805191012090565b6000807f7fffffffffffffffffffffffffffffff5d576e7357a4501ddfe92f46681b20a0831115611e995750600090506003611f46565b8460ff16601b14158015611eb157508460ff16601c14155b15611ec25750600090506004611f46565b6040805160008082526020820180845289905260ff881692820192909252606081018690526080810185905260019060a0016020604051602081039080840390855afa158015611f16573d6000803e3d6000fd5b5050604051601f1901519150506001600160a01b038116611f3f57600060019250925050611f46565b9150600090505b94509492505050565b6000816004811115611f6357611f63612b88565b1415611f6c5750565b6001816004811115611f8057611f80612b88565b1415611fce5760405162461bcd60e51b815260206004820152601860248201527f45434453413a20696e76616c6964207369676e617475726500000000000000006044820152606401610a14565b6002816004811115611fe257611fe2612b88565b14156120305760405162461bcd60e51b815260206004820152601f60248201527f45434453413a20696e76616c6964207369676e6174757265206c656e677468006044820152606401610a14565b600381600481111561204457612044612b88565b141561209d5760405162461bcd60e51b815260206004820152602260248201527f45434453413a20696e76616c6964207369676e6174757265202773272076616c604482015261756560f01b6064820152608401610a14565b60048160048111156120b1576120b1612b88565b1415610ea05760405162461bcd60e51b815260206004820152602260248201527f45434453413a20696e76616c6964207369676e6174757265202776272076616c604482015261756560f01b6064820152608401610a14565b60008581526007602090815260408083206001600160a01b0388168452600381019092529091205460ff16156121925760405162461bcd60e51b815260206004820152602760248201527f476f7665726e6f72566f74696e6753696d706c653a20766f746520616c726561604482015266191e4818d85cdd60ca1b6064820152608401610a14565b6001600160a01b03851660009081526003820160205260408120805460ff1916600117905560ff168460ff1614156121e357828160000160008282546121d891906131bb565b9091555061155e9050565b60ff84166001141561220357828160010160008282546121d891906131bb565b60ff84166002141561222357828160020160008282546121d891906131bb565b60405162461bcd60e51b815260206004820152603560248201527f476f7665726e6f72566f74696e6753696d706c653a20696e76616c69642076616044820152746c756520666f7220656e756d20566f74655479706560581b6064820152608401610a14565b8154600160801b90819004600f0b6000818152600180860160205260409091209390935583546001600160801b03908116939091011602179055565b60085460405163e38335e560e01b81526001600160a01b039091169063e38335e59034906123009088908890889060009089906004016130ff565b6000604051808303818588803b15801561231957600080fd5b505af115801561232d573d6000803e3d6000fd5b50505050505050505050565b6000818152600160205260408120600281015460ff161561235d5750600792915050565b6002810154610100900460ff16156123785750600292915050565b600061238384610cde565b9050806123d25760405162461bcd60e51b815260206004820152601d60248201527f476f7665726e6f723a20756e6b6e6f776e2070726f706f73616c2069640000006044820152606401610a14565b4381106123e3575060009392505050565b60006123ee85611063565b905043811061240257506001949350505050565b61240b856125d7565b801561242a575060008581526007602052604090208054600190910154115b1561243a57506004949350505050565b506003949350505050565b60006001600160401b038211156124ad5760405162461bcd60e51b815260206004820152602660248201527f53616665436173743a2076616c756520646f65736e27742066697420696e203660448201526534206269747360d01b6064820152608401610a14565b5090565b6060824710156125125760405162461bcd60e51b815260206004820152602660248201527f416464726573733a20696e73756666696369656e742062616c616e636520666f6044820152651c8818d85b1b60d21b6064820152608401610a14565b6001600160a01b0385163b6125695760405162461bcd60e51b815260206004820152601d60248201527f416464726573733a2063616c6c20746f206e6f6e2d636f6e74726163740000006044820152606401610a14565b600080866001600160a01b031685876040516125859190613488565b60006040518083038185875af1925050503d80600081146125c2576040519150601f19603f3d011682016040523d82523d6000602084013e6125c7565b606091505b5091509150610d8b82828661260e565b6000818152600760205260408120600281015460018201546125f991906131bb565b6126056107ca85610cde565b11159392505050565b6060831561261d575081610f1c565b82511561262d5782518084602001fd5b8160405162461bcd60e51b8152600401610a14919061288e565b60006020828403121561265957600080fd5b81356001600160e01b031981168114610f1c57600080fd5b803560ff8116811461268257600080fd5b919050565b60008083601f84011261269957600080fd5b5081356001600160401b038111156126b057600080fd5b6020830191508360208285010111156126c857600080fd5b9250929050565b634e487b7160e01b600052604160045260246000fd5b604051601f8201601f191681016001600160401b038111828210171561270d5761270d6126cf565b604052919050565b60006001600160401b0383111561272e5761272e6126cf565b612741601f8401601f19166020016126e5565b905082815283838301111561275557600080fd5b828260208301376000602084830101529392505050565b600082601f83011261277d57600080fd5b610f1c83833560208501612715565b60008060008060008060008060e0898b0312156127a857600080fd5b883597506127b860208a01612671565b965060408901356001600160401b03808211156127d457600080fd5b6127e08c838d01612687565b909850965060608b01359150808211156127f957600080fd5b506128068b828c0161276c565b94505061281560808a01612671565b925060a0890135915060c089013590509295985092959890939650565b60005b8381101561284d578181015183820152602001612835565b8381111561285c576000848401525b50505050565b6000815180845261287a816020860160208601612832565b601f01601f19169290920160200192915050565b602081526000610f1c6020830184612862565b6001600160a01b0381168114610ea057600080fd5b600080600080608085870312156128cc57600080fd5b84356128d7816128a1565b935060208501356128e7816128a1565b92506040850135915060608501356001600160401b0381111561290957600080fd5b6129158782880161276c565b91505092959194509250565b60006001600160401b0382111561293a5761293a6126cf565b5060051b60200190565b600082601f83011261295557600080fd5b8135602061296a61296583612921565b6126e5565b82815260059290921b8401810191818101908684111561298957600080fd5b8286015b848110156129ad5780356129a0816128a1565b835291830191830161298d565b509695505050505050565b600082601f8301126129c957600080fd5b813560206129d961296583612921565b82815260059290921b840181019181810190868411156129f857600080fd5b8286015b848110156129ad57803583529183019183016129fc565b600082601f830112612a2457600080fd5b81356020612a3461296583612921565b82815260059290921b84018101918181019086841115612a5357600080fd5b8286015b848110156129ad5780356001600160401b03811115612a765760008081fd5b612a848986838b010161276c565b845250918301918301612a57565b60008060008060808587031215612aa857600080fd5b84356001600160401b0380821115612abf57600080fd5b612acb88838901612944565b95506020870135915080821115612ae157600080fd5b612aed888389016129b8565b94506040870135915080821115612b0357600080fd5b50612b1087828801612a13565b949793965093946060013593505050565b600060208284031215612b3357600080fd5b5035919050565b600080600080600060a08688031215612b5257600080fd5b85359450612b6260208701612671565b9350612b7060408701612671565b94979396509394606081013594506080013592915050565b634e487b7160e01b600052602160045260246000fd5b6020810160088310612bc057634e487b7160e01b600052602160045260246000fd5b91905290565b60008060408385031215612bd957600080fd5b823591506020830135612beb816128a1565b809150509250929050565b60008060408385031215612c0957600080fd5b82359150612c1960208401612671565b90509250929050565b600080600080600060808688031215612c3a57600080fd5b85359450612c4a60208701612671565b935060408601356001600160401b0380821115612c6657600080fd5b612c7289838a01612687565b90955093506060880135915080821115612c8b57600080fd5b50612c988882890161276c565b9150509295509295909350565b60008060008060608587031215612cbb57600080fd5b84359350612ccb60208601612671565b925060408501356001600160401b03811115612ce657600080fd5b612cf287828801612687565b95989497509550505050565b60008060008060808587031215612d1457600080fd5b84356001600160401b0380821115612d2b57600080fd5b612d3788838901612944565b95506020870135915080821115612d4d57600080fd5b612d59888389016129b8565b94506040870135915080821115612d6f57600080fd5b612d7b88838901612a13565b93506060870135915080821115612d9157600080fd5b508501601f81018713612da357600080fd5b61291587823560208401612715565b600080600060608486031215612dc757600080fd5b8335612dd2816128a1565b92506020840135915060408401356001600160401b03811115612df457600080fd5b612e008682870161276c565b9150509250925092565b600060208284031215612e1c57600080fd5b8135610f1c816128a1565b600080600080600060a08688031215612e3f57600080fd5b8535612e4a816128a1565b94506020860135612e5a816128a1565b935060408601356001600160401b0380821115612e7657600080fd5b612e8289838a016129b8565b94506060880135915080821115612e9857600080fd5b612ea489838a016129b8565b93506080880135915080821115612c8b57600080fd5b60008060008060608587031215612ed057600080fd5b8435612edb816128a1565b93506020850135925060408501356001600160401b03811115612ce657600080fd5b60008060408385031215612f1057600080fd5b8235612f1b816128a1565b946020939093013593505050565b600080600080600060a08688031215612f4157600080fd5b8535612f4c816128a1565b94506020860135612f5c816128a1565b9350604086013592506060860135915060808601356001600160401b03811115612f8557600080fd5b612c988882890161276c565b8183823760009101908152919050565b600181811c90821680612fb557607f821691505b60208210811415612fd657634e487b7160e01b600052602260045260246000fd5b50919050565b60208082526021908201527f476f7665726e6f723a2070726f706f73616c206e6f74207375636365737366756040820152601b60fa1b606082015260800190565b60006020828403121561302f57600080fd5b5051919050565b600081518084526020808501945080840160005b8381101561306f5781516001600160a01b03168752958201959082019060010161304a565b509495945050505050565b600081518084526020808501945080840160005b8381101561306f5781518752958201959082019060010161308e565b600081518084526020808501808196508360051b8101915082860160005b858110156130f25782840389526130e0848351612862565b988501989350908401906001016130c8565b5091979650505050505050565b60a08152600061311260a0830188613036565b8281036020840152613124818861307a565b9050828103604084015261313881876130aa565b60608401959095525050608001529392505050565b60c08152600061316060c0830189613036565b8281036020840152613172818961307a565b9050828103604084015261318681886130aa565b60608401969096525050608081019290925260a0909101529392505050565b634e487b7160e01b600052601160045260246000fd5b600082198211156131ce576131ce6131a5565b500190565b60208082526018908201527f476f7665726e6f723a206f6e6c79476f7665726e616e63650000000000000000604082015260600190565b60808152600061321d6080830187613036565b828103602084015261322f818761307a565b9050828103604084015261324381866130aa565b91505082606083015295945050505050565b84815260ff84166020820152826040820152608060608201526000610eeb6080830184612862565b85815260ff8516602082015283604082015260a0606082015260006132a560a0830185612862565b82810360808401526132b78185612862565b98975050505050505050565b634e487b7160e01b600052603260045260246000fd5b60006000198214156132ed576132ed6131a5565b5060010190565b60006020828403121561330657600080fd5b81518015158114610f1c57600080fd5b600082821015613328576133286131a5565b500390565b60208082526021908201527f476f7665726e6f723a20696e76616c69642070726f706f73616c206c656e67746040820152600d60fb1b606082015260800190565b60006001600160401b03808316818516808303821115613390576133906131a5565b01949350505050565b60006101208b8352602060018060a01b038c16818501528160408501526133c28285018c613036565b915083820360608501526133d6828b61307a565b915083820360808501528189518084528284019150828160051b850101838c0160005b8381101561342757601f19878403018552613415838351612862565b948601949250908501906001016133f9565b505086810360a088015261343b818c6130aa565b94505050505061345660c08401876001600160401b03169052565b6001600160401b03851660e08401528281036101008401526134788185612862565b9c9b505050505050505050505050565b6000825161349a818460208701612832565b919091019291505056fe416464726573733a206c6f772d6c6576656c2063616c6c20776974682076616c7565206661696c6564a26469706673582212204954ac0775657fc70ffa051a9c52df57cffc4800690ba180fcecc89f5ce1f36264736f6c63430008090033",
  "linkReferences": {},
  "deployedLinkReferences": {}
}